:100000000C94AB000C9438140C94C8000C94300D74
:100010000C94C8000C94890D0C94C8000C94C80072
:100020000C94C8000C949D0A0C94C8000C94C80051
:100030000C94C8000C94C8000C94C8000C94C80020
:100040000C945B060C94C8000C94C8000C94C80077
:100050000C94C8000C94C8000C94C8000C94A40C18
:100060000C94C8000C94C800FA3E1A7ADE8EF62E64
:100070006078AE1CAA2A3ACEF30AB61E3838B86E9B
:1000800076DA6800FC60DAF266B6BEE0FEE684006E
:1000900003070809060A050C0490000B10120F0D47
:1000A0000E11139B00616C61726D206F6E210061F7
:1000B0006C61726D206F66660053657420646179AF
:1000C00000646F6E6500616C61726D20696E6974A9
:1000D00000636C6F636B20696E6974007370656197
:1000E0006B657220696E697400626F6F737420694A
:1000F0006E69740076666420696E69740074757246
:100100006E696E67206F6E20616C61726D7377002F
:100110007475726E696E67206F6E20627574746F8D
:100120006E7300636C6F636B20696E6974002100ED
:1001300077616B6574696D650057414B4552455356
:100140004554007A00623200623300623100736EFF
:100150006F6F7A65000011241FBECFEFD4E0DEBFC1
:10016000CDBF12E0A0E0B1E0ECE4FDE202C00590FA
:100170000D92A036B107D9F713E0A0E6B2E001C0B6
:100180001D92A831B107E1F70E94D8120C94A41671
:100190000C9400009C0178941092710210927002ED
:1001A000809170029091710282179307C8F30895AD
:1001B000A895089581E0809364025B9A8CB58F7B4B
:1001C0008CBD85B1877D85B95E9815BC1092000302
:1001D0001092680085B1897F85B98BB18F7C8BB90E
:1001E00028988AB18F7C8AB920985A985298E1E66B
:1001F000F0E090E8908388E08083449A83B787603A
:1002000083BF889590831082449808958EE284B9C4
:1002100088E48AB989E187B984E38BB991E095B91B
:1002200085E08093680090936B0080E380936D007D
:100230000895FC0183709070892B39F4CF0164E636
:1002400070E00E940616892B49F420E030E0CF01CF
:1002500060E971E00E940616892B11F421E030E07C
:10026000822F08951092800010928100299A2A9876
:1002700078941092710210927002809170029091A5
:1002800071020A97D0F32A9A2998789410927102F1
:100290001092700280917002909171020A97D0F3CF
:1002A00085B1897F85B982EB8093800088E1809356
:1002B000810008951F93162F9C0140E050E060E4F8
:1002C00072E48FE090E00E944F16309387002093F5
:1002D00086008091860090918700969587959093EF
:1002E0008B0080938A0080918A0090918B0090937C
:1002F00089008093880028EC30E01CC08091810048
:1003000082608093810080ED97E0F9013197F1F7E9
:100310000197D9F7809181008D7F8093810085B10D
:10032000897F85B980ED97E0F9013197F1F7019761
:10033000D9F71150112311F785B1897F85B91F9124
:1003400008958B3590F58E3110F08E3111F48EE1D9
:100350002DC0843210F483E229C0893210F488E27F
:1003600025C08E3210F48DE221C0833310F482E375
:100370001DC0883310F487E319C08D3310F48CE36B
:1003800015C0823410F481E411C0873410F486E47F
:100390000DC08C3410F48BE409C0813510F480E575
:1003A00005C0863510F485E501C08AE587BD83E088
:1003B00084BD81E085BD84B5806884BD80916E0078
:1003C000816080936E00789408951F93182F262FD4
:1003D000842F6AE00E94ED15E92FF0E0EC57FF4F03
:1003E000E491E0930D03842F0E94ED15E82FF0E0D7
:1003F000EC57FF4FE491E0930C0310920B03822F14
:100400000E94ED15E92FF0E0EC57FF4FE491E093E7
:100410000A03822F0E94ED15E82FF0E0EC57FF4F02
:10042000E491E0930903109208038091620288230B
:1004300019F5812F90E00B966CE070E00E941A167F
:100440009C012F5F3F4FC9016AE070E00E941A16BD
:10045000FC01EC57FF4FE491E0930703C9016AE008
:1004600070E00E941A16FB01EC57FF4FE491E093F5
:1004700006031C3018F11EC0812F68E10E94ED15A3
:10048000292F892F6AE00E94ED15E92FF0E0EC5743
:10049000FF4FE491E0930703822F0E94ED15E82FB0
:1004A000F0E0EC57FF4FE491E09306038091630284
:1004B000882321F080910503816003C080910503AA
:1004C0008E7F809305031F910895382F262F109259
:1004D0000D0310920C0310920B03862F6AE00E940A
:1004E000ED15E92FF0E0EC57FF4FE491E0930A039C
:1004F000822F0E94ED15E82FF0E0EC57FF4FE491BA
:10050000E09309031092080380916202882309F0A6
:100510003BC03C3058F08091050381608093050317
:10052000E7E7F0E0E491E0930C030AC0E8E6F0E0CE
:10053000E491E0930C03809105038E7F8093050383
:10054000E4E7F0E0E491E0930D03832F90E00B9655
:100550006CE070E00E941A169C012F5F3F4FC901AA
:100560006AE070E00E941A16FC01EC57FF4FE4911C
:10057000E0930703C9016AE070E00E941A16FB01CC
:10058000EC57FF4FE4911EC0832F90E0479668E13F
:1005900070E00E941A169C012F5F3F4FC9016AE06C
:1005A00070E00E941A16FC01EC57FF4FE491E093B3
:1005B0000703C9016AE070E00E941A16FB01EC57BC
:1005C000FF4FE491E09306030895482F262FEAE6B3
:1005D000F0E0849180930D037196849180930C03D5
:1005E0003196E491E0930B03862F6AE00E94ED15AB
:1005F000E92FF0E0EC57FF4FE491E0930A03822FDC
:100600000E94ED15E82FF0E0EC57FF4FE491E093E6
:10061000090310920803242F332727FD309537FF55
:1006200003C0309521953F4FC9016AE070E00E94F8
:100630001A16FC01EC57FF4FE491E0930703C90140
:100640006AE070E00E941A16FB01EC57FF4FE4913C
:10065000E093060347FD04C0809105038D7F03C02E
:10066000809105038260809305030895CF93DF9303
:1006700010920503EC01A6E0B3E0E881EE23D1F08F
:100680008E2F81568A3128F4F0E0E95FFF4FE49124
:1006900008C08E2F80538A3030F4F0E0EC5AFF4FC0
:1006A000E491EC9301C01C922196119683E0AE3048
:1006B000B80719F7DF91CF910895809163028823DD
:1006C00009F4EDC0809103038B3540F480917B02E7
:1006D000843620F480911303843628F080E091E082
:1006E0000E9436035FC0809103036AE00E94ED150B
:1006F000E82FF0E0EC57FF4FE491E0930603809180
:1007000003030E94ED15E92FF0E0EC57FF4FE49151
:10071000E160E093070380917B020E94ED15E82FD2
:10072000F0E0EC57FF4FE491E093080380917B02E7
:100730000E94ED15E92FF0E0EC57FF4FE491E093B4
:100740000903809113030E94ED15E82FF0E0EC57A8
:10075000FF4FE491E0930A03809113030E94ED158B
:10076000E92FF0E0EC57FF4FE491E0930B03E3E750
:10077000F0E0E491E0930C03E0918200F0918300BB
:10078000E491E0930D0380911603882311F492E025
:1007900001C090E08091630220E0811121E0922B62
:1007A00090930503A89578941092710210927002AC
:1007B00080917002909171028C5D9540C8F3A8956C
:1007C00080910203853B40F480910103843620F43C
:1007D00080917D028A3018F089E091E062C08091BA
:1007E000020364E60E94ED15E82FF0E0EC57FF4F9E
:1007F000E491E0930603809102036AE00E94ED1504
:100800000E94ED15E92FF0E0EC57FF4FE491E093E3
:100810000703809102030E94ED15E92FF0E0EC57E9
:10082000FF4FE491E160E0930803809101030E948F
:10083000ED15E82FF0E0EC57FF4FE491E09309034A
:10084000809101030E94ED15E92FF0E0EC57FF4F76
:10085000E491E0930A0380917D020E94ED15E92F57
:10086000F0E0EC57FF4FE491E0930B03E3E7F0E097
:10087000849180930C033396E491E0930D0380916F
:100880001103882311F492E001C090E0809163028B
:1008900020E0811121E0922B90930503089582E1DD
:1008A00091E00E9436030895CF93DF93882309F0E7
:1008B00096C01092050382E08093080380930B0397
:1008C00080916202882309F037C0809115036AE0A5
:1008D0000E94F915E82FFF27E7FDF095EC57FF4F31
:1008E000E491E0930603809115036AE00E94F915F4
:1008F000E92FFF27E7FDF095EC57FF4FE491E093D8
:100900000703809104036AE00E94F915E82FFF278E
:10091000E7FDF095EC57FF4FE491E09309038091D8
:1009200004036AE00E94F915E92FFF27E7FDF0951F
:10093000EC57FF4FE49136C0809104036AE00E94B7
:10094000F915E82FFF27E7FDF095EC57FF4FE491ED
:10095000E0930603809104036AE00E94F915E92FF1
:10096000FF27E7FDF095EC57FF4FE491E093070375
:10097000809115036AE00E94F915E82FFF27E7FD33
:10098000F095EC57FF4FE491E09309038091150334
:100990006AE00E94F915E92FFF27E7FDF095EC5773
:1009A000FF4FE491E0930A038091FE026AE00E9407
:1009B000F915E82FFF27E7FDF095EC57FF4FE4917D
:1009C000E0930C038091FE026AE00E94F915E92F82
:1009D000FF27E7FDF095EC57FF4FE491EEC0813023
:1009E00009F0EDC080911503C82FDD27C7FDD09514
:1009F0008091FE02E82FFF27E7FDF095E053F84FC6
:100A000080911503833014F42C96319720910403C0
:100A100010920C0310920D03332727FD30952F5FA2
:100A20003F4F2E0F3F1FCE01880F991F280F391FF0
:100A3000CF019695879596958795280F391FCF01F9
:100A400060E971E00E940616260F371FCF0164E6A9
:100A500070E00E940616261B370BAE014F5F5F4FFA
:100A6000CA01880F991F840F951F880F991F6AE08C
:100A700070E00E940616C901860F971F67E070E0BC
:100A80000E9406168330B9F0843028F4813069F072
:100A9000823070F407C08530A1F0853078F0863060
:100AA000B9F412C08BE191E011C082E291E00EC076
:100AB00089E291E00BC081E391E008C08AE391E014
:100AC00005C083E491E002C08AE491E00E9436030D
:100AD000789410927102109270028091700290913D
:100AE0007102885E9340C8F31092090310920A03C2
:100AF00010920B0380911503863079F1873074F4DE
:100B0000833011F184302CF48130C1F08230D9F57A
:100B100018C08430E1F08530B1F51CC0893031F166
:100B20008A302CF48730E1F0883069F51CC08B30B6
:100B300019F18B30F4F08C3031F521C083E591E070
:100B400020C087E591E01DC08BE591E01AC081E6E9
:100B500091E017C087E691E014C08BE691E011C0E8
:100B600080E791E00EC085E791E00BC08BE791E054
:100B700008C080E891E005C086E891E002C08CE8FA
:100B800091E00E943603809104036AE00E94F91507
:100B9000E82FFF27E7FDF095EC57FF4FE491E09336
:100BA0000C03809104036AE00E94F915E92FFF27E6
:100BB000E7FDF095EC57FF4FE491E0930D03DF91D3
:100BC000CF91089581E58CBD08959B01AC01F89407
:100BD000CA01AA27BB278EBD0DB407FEFDCFBB27D8
:100BE000A52F942F832F8EBD0DB407FEFDCF2EBDF4
:100BF0000DB407FEFDCF409A409878940895AF92C7
:100C0000BF92CF92DF92EF92FF920F931F93E82F44
:100C1000F0E0E057FF4FE49181E090E002C0880FE0
:100C2000991FEA95E2F77C010027F7FC0095102F49
:100C300020917702309178024091790250917A02A6
:100C4000A0E0B0E070E091E0A92EB12CC12CD12C35
:100C5000CB010A2E02C0959587950A94E2F780FF92
:100C600011C0FD01E556FF4FE491A601950104C0B6
:100C7000220F331F441F551FEA95D2F7E22AF32AA9
:100C8000042B152B1196A830B10511F7209377028C
:100C9000309378024093790250937A02C801B701E9
:100CA0000E94E5051F910F91FF90EF90DF90CF908C
:100CB000BF90AF9008951F920F920FB60F9211241C
:100CC0002F933F934F935F936F937F938F939F9354
:100CD000AF93BF93EF93FF937894A89580916A02A6
:100CE00090916B02019690936B0280936A028197B8
:100CF00008F46CC010926B0210926A02809170022C
:100D0000909171020196909371028093700280918C
:100D10006902893010F01092690280916902E82F0F
:100D2000F0E0EB5FFC4F60810E94FF05809169025B
:100D30008F5F8093690280911203882309F446C073
:100D400080916E0290916F02892B09F03FC08091D3
:100D50006C0290916D02019690936D0280936C02EB
:100D60008536910598F110926D0210926C028AEF0F
:100D700090E0909387008093860080918600909108
:100D800087009695879590938B0080938A00809139
:100D90008A0090918B0090938900809388008091C5
:100DA0001203807F49F0809112038F7080931203A9
:100DB000809181008D7F08C080911203806F8093A5
:100DC000120380918100826080938100FF91EF91F6
:100DD000BF91AF919F918F917F916F915F914F9153
:100DE0003F912F910F900FBE0F901F9018958EBDC1
:100DF0000DB407FEFDCF08958091C000807808955E
:100E0000FC015381505182814AE0849FC00111242A
:100E1000580F7481658130915F02232F20518181A9
:100E2000280F8081849FC0011124280F20937C0209
:100E30008091680237FF02C0581B01C0580F5093C1
:100E40000E0360518AE0789FC0011124680F6093FF
:100E500017030895FC015181505180814AE0849F1D
:100E6000C0011124580F338130518281849FC00109
:100E70001124380F258120518481849FC0011124C1
:100E8000280F10926502109266025093040330936B
:100E900015032093FE020895FC0141814051808199
:100EA0005AE0859FC0011124480F3381305182815F
:100EB000859FC0011124380F268120518581859F8F
:100EC000C0011124280F4093030330937B02209329
:100ED000130380E06E3409F481E0809316030895D3
:100EE000FC013281305D808124E6829FC0011124A3
:100EF000380F81814AE0849FC0011124380F24817A
:100F000020518381849FC0011124280F8681805342
:100F1000309302032093010380937D0280E06534C7
:100F200009F481E0809311030895809117038C33B5
:100F300054F0809117038C538093170380910E0314
:100F40008F5F80930E038091170387FF0AC0809103
:100F50001703845C8093170380910E038150809364
:100F60000E0380910E038C33B4F080910E038C53EA
:100F700080930E0380917C028F5F80937C0260914E
:100F80007C0284E090E00E94961660910E0385E05A
:100F900090E00E94961680910E0387FF16C0809104
:100FA0000E03845C80930E0380917C0281508093B9
:100FB0007C0260917C0284E090E00E949616609131
:100FC0000E0385E090E00E94961680917C028831A5
:100FD00084F080917C02885180937C02809104038C
:100FE0008F5F809304036091040383E090E00E948C
:100FF000961680917C0287FF10C080917C02885EEB
:1010000080937C028091040381508093040360915B
:10101000040383E090E00E949616809104038032DE
:101020007CF5809104038F3181F480911503843025
:1010300039F180911503863019F1809115038930BB
:10104000F9F0809115038B30D9F0809104038E3133
:1010500021F480911503823099F0809104038D3141
:10106000E9F4809115038230C9F48091FE0299273A
:1010700087FD90958053984F0E941901882371F441
:1010800081E080930403809115038F5F80931503A3
:101090006091150382E090E00E949616809104030F
:1010A00018160CF449C0809115038630D1F08730B2
:1010B00064F4833029F184301CF4813094F433C01B
:1010C000843079F0853079F510C08A301CF488308E
:1010D00044F40BC08B3029F08B303CF08C3019F588
:1010E00004C080910403815E03C080910403825E8A
:1010F000809304038091150381508093150316C0DB
:101100008091FE02992787FD90958053984F0E9409
:101110001901882321F080910403835EE9CF809137
:101120000403845EE5CF81E080930403609115039E
:1011300082E090E00E949616809115038D3074F045
:101140008091FE028F5F8093FE0281E08093150301
:101150006091FE0281E090E00E9496168091150356
:101160001816B4F080911503845F80931503809165
:10117000FE0281508093FE026091150382E090E0B0
:101180000E9496166091FE0281E090E00E94961601
:101190000895DF92EF92FF920F931F93E0907C02ED
:1011A000F0900E03009117038AE08093760210E01E
:1011B0003AE0D32E8091730280FDD7C080917302F4
:1011C000882321F480917402882319F0D09276024A
:1011D00005C080917602882309F44BC08091730288
:1011E00081FF4AC0109273021123B9F4E0907C028F
:1011F000F0900E03009117038E2D6F2D402F0E944B
:10120000E5018091060381608093060380910703C6
:1012100081608093070311E02FC0113089F48E2D77
:101220006F2D402F0E94E50180910903816080931A
:10123000090380910A03816080930A0312E01CC0B5
:10124000123089F48E2D6F2D402F0E94E501809180
:101250000C03816080930C0380910D038160809367
:101260000D0313E009C0E0927C02F0920E0300939C
:1012700017031092140379C08091730282FD04C099
:101280008091740282FF96CF109273021130F9F4AC
:101290008E2D90E0019668E170E00E941A16E82E0B
:1012A0006F2D402F0E94E50180910603816080939D
:1012B000060380910703816080930703E0927C021C
:1012C00060917C0284E090E00E9496163DC012304E
:1012D00001F58F2D90E001966CE370E00E941A16E4
:1012E000F82E8E2D6F2D402F0E94E501809109036D
:1012F00081608093090380910A03816080930A03CF
:1013000060910E0385E090E00E949616F0920E0325
:101310001BC01330C9F4802F90E001966CE370E09D
:101320000E941A16082F8E2D6F2D402F0E94E50166
:1013300080910C03816080930C0380910D03816088
:1013400080930D03009317038091740282FF32CFC4
:1013500078941092710210927002809170029091B4
:1013600071028B349105C8F325CF1F910F91FF9027
:10137000EF90DF900895EF92FF920F931F931091DB
:1013800010030091FF028AE080937602FF245AE066
:10139000E52E8091730280FDAFC080917302882397
:1013A00021F480917402882319F0E092760217C02C
:1013B00080917602882399F41092140310931003FD
:1013C0000093FF026091100387E090E00E94961660
:1013D0006091FF0288E090E00E9496168DC0809197
:1013E000730281FF3CC010927302FF2089F4812FA9
:1013F000602F0E946502809106038160809306033E
:1014000080910703816080930703FF24F39427C032
:1014100081E0F81689F4812F602F0E946502809187
:10142000090381608093090380910A03816080939E
:101430000A0342E0F42E13C0109310030093FF023E
:101440006091100387E090E00E9496166091FF0281
:1014500088E090E00E949616109214034DC080918F
:10146000730282FD04C08091740282FF92CF1092B9
:10147000730281E0F816B1F4812F90E0019668E1E3
:1014800070E00E941A16182F602F0E94650280914A
:101490000603816080930603809107038160809337
:1014A000070319C082E0F816B1F4802F90E001968E
:1014B0006CE370E00E941A16082F812F602F0E94A3
:1014C00065028091090381608093090380910A037A
:1014D000816080930A038091740282FF5ACF7894CE
:1014E00010927102109270028091700290917102BC
:1014F0008B349105C8F34DCF1F910F91FF90EF9062
:101500000895982F80910F038823B1F080911003E4
:10151000891791F48091FF02861771F4442361F4D6
:1015200085EA90E061E00E94B01481E080931203AC
:1015300010926F0210926E0208951F920F920FB6D2
:101540000F9211242F933F934F935F936F937F9349
:101550008F939F93AF93BF93EF93FF9380E8809314
:10156000610010926100809117038F5F80931703D1
:101570000E94950780916402882309F056C08091EB
:101580001403882311F580916502882349F0809126
:10159000170380FF05C082E991E00E94360308C06E
:1015A00080917C0260910E03409117030E94E50137
:1015B00080910F03882321F080910503826003C08E
:1015C000809105038D7F8093050380917C0260915B
:1015D0000E03409117030E94810A809176028823AE
:1015E00029F0809176028150809376028091750275
:1015F000882329F080917502815080937502809133
:101600006E0290916F02009781F0019790936F02A4
:1016100080936E0280FF04C080910503826003C046
:10162000809105038D7F80930503FF91EF91BF911A
:10163000AF919F918F917F916F915F914F913F916A
:101640002F910F900FBE0F901F9018954A9B34C09A
:1016500080910F03882309F04CC081E080930F0331
:1016600010926F0210926E028BE991E00E94360395
:1016700089E08093140378941092710210927002A2
:101680008091700290917102885E9340C8F38091BE
:1016900010036091FF020E9465027894109271021B
:1016A000109270028091700290917102885E934056
:1016B000C8F310921403089580910F038823C9F092
:1016C00010920F0310926F0210926E02809112031B
:1016D000882379F08FEA90E061E00E94B0141092C4
:1016E0001203809181008D7F8093810085B1866097
:1016F00085B90895FF920F931F938AE08093760235
:1017000010E00AE0FF24F39480917302882321F40F
:1017100080917402882319F00093760205C08091AD
:101720007602882309F472C08091730280FD08C19B
:101730008091730281FF6DC0109273021123D1F466
:1017400080916202882311F411E006C089EB90E0D9
:1017500061E00E94B01412E080E00E945404809185
:101760000603816080930603809107038160809364
:1017700007034FC0113029F480916202882339F0A9
:1017800020C01230E1F4809162028130A9F480918E
:101790006202882311F011E001C012E080E00E9493
:1017A00054048091090381608093090380910A03A6
:1017B000816080930A032DC0882339F015C0113051
:1017C00099F480916202813079F480E00E9454049F
:1017D00080910C03816080930C0380910D038160E4
:1017E00080930D0313E015C083E68093140380E01B
:1017F0000E945404789410927102109270028091A9
:101800007002909171028C5D9540C8F310921403A0
:1018100097C08091730282FD04C08091740282FFA0
:1018200073CF10927302113061F5809115038F5FB1
:1018300080931503809115038D3014F010931503D8
:1018400080E00E94540480916202882359F48091C0
:101850000603816080930603809107038160809373
:1018600007030AC080910903816080930903809176
:101870000A03816080930A036091150382E090E07F
:101880004DC0123061F5809104038F5F8093040393
:1018900080910403803214F0F092040380E00E94EF
:1018A000540480916202813059F480910603816072
:1018B00080930603809107038160809307030AC029
:1018C0008091090381608093090380910A038160FC
:1018D00080930A036091040383E090E01FC01330FB
:1018E000F9F48091FE028F5F8093FE028091FE02E8
:1018F00064E60E94F9159093FE0280E00E94540471
:1019000080910C03816080930C0380910D038160B2
:1019100080930D036091FE0281E090E00E94961694
:101920008091740282FFF0CE78941092710210922E
:1019300070028091700290917102CC97D0F3E4CE46
:101940001F910F91FF9008951F920F920FB60F9263
:1019500011242F933F934F935F936F937F938F93B4
:101960009F93AF93BF93EF93FF9300B605FE28C0FC
:1019700080916402882309F041C05B9A85B1877D1C
:1019800085B95E988CB58F7B8CBD8091660288236B
:1019900061F060910E0385E090E00E9496166091E0
:1019A000170386E090E00E94961683E491E061E0E0
:1019B0000E94B01415BC109200031092680019C068
:1019C000809164028823D1F080916602882361F0BF
:1019D00060910E0385E090E00E94961660911703D7
:1019E00086E090E00E94961689E391E061E00E9413
:1019F000B014E0916002F09161020995FF91EF91BE
:101A0000BF91AF919F918F917F916F915F914F9116
:101A10003F912F910F900FBE0F901F90189588E562
:101A200092E090936F0280936E028EE491E061E009
:101A30000E94B01484EA91E00E94360389E080930A
:101A400014037894109271021092700280917002C7
:101A500090917102885E9340C8F310921403089528
:101A60001F920F920FB60F9211242F933F934F9313
:101A70005F936F937F938F939F93AF93BF93EF93F6
:101A8000FF9310926800789418992AC0809172028E
:101A900081FD2BC078941092710210927002809197
:101AA0007002909171020A97D0F318991EC00E949B
:101AB000320180911203882319F00E940F0D15C086
:101AC00080917202826080937202809173028260C0
:101AD0008093730285E491E061E00E94B01405C038
:101AE000809172028D7F8093720285E080936800FE
:101AF000FF91EF91BF91AF919F918F917F916F91E6
:101B00005F914F913F912F910F900FBE0F901F90BB
:101B100018951F920F920FB60F9211242F933F9397
:101B20004F935F936F937F938F939F93AF93BF93E5
:101B3000EF93FF931092680078944D9927C080919D
:101B4000720280FD28C07894109271021092700287
:101B500080917002909171020A97D0F34D9963C001
:101B60000E943201809112038823C9F5809172028C
:101B7000816080937202809173028160809373020E
:101B80008BE491E061E00E94B01405C08091720284
:101B90008E7F809372024C993FC08091720282FDC9
:101BA00042C078941092710210927002809170027B
:101BB000909171020A97D0F34C9935C082E08093DE
:101BC00075021BC04C9B19C00E94320180917202A9
:101BD0008B7F8093720280911203882319F00E94F8
:101BE0000F0D21C088E491E061E00E94B014809163
:101BF000730284608093730216C0809175028823FB
:101C000009F780917202846080937202809174025D
:101C100084608093740207C01092740280917202F3
:101C20008B7F8093720285E080936800FF91EF9133
:101C3000BF91AF919F918F917F916F915F914F91E4
:101C40003F912F910F900FBE0F901F9018958F927C
:101C50009F92BF92CF92DF92EF92FF920F931F93CA
:101C6000DF93CF93CDB7DEB76F970FB6F894DEBF93
:101C70000FBECDBF8091C6008983909167029923E2
:101C800049F4843209F031C181E0809367028EE724
:101C900092E024C10EE712E0F80101900020E9F77C
:101CA0003197E01BF10BE038F105C0F4369789F469
:101CB000C8016DEA71E00E947516009721F482E078
:101CC000809367020AC180E8F80111928A95E9F7CA
:101CD00001C18A3209F001C1923019F080E8D801BF
:101CE000F6C084EB91E00E94D114C8010E94D11487
:101CF000C8016CE270E00E946A169C01DE01129637
:101D0000FC01319686E001900D928150E1F7188632
:101D1000C90101966CE270E00E946A16FC0190E035
:101D20008181813409F491E090936302CF0101969F
:101D30006CE270E00E946A169C01DE015096FC0184
:101D4000319687E001900D928150E1F71F8AC90119
:101D500001966CE270E00E946A16FC01E180019637
:101D60006CE270E00E946A169C01DE015896FC014C
:101D7000319687E001900D928150E1F71F8EC901E5
:101D800001966CE270E00E946A16FC01F1800196F7
:101D90006CE270E00E946A1601966CE270E00E94AC
:101DA0006A1601966CE270E00E946A16DE011996CE
:101DB000FC01319686E001900D928150E1F71F867B
:101DC0008E8590E0805192402D854AE0249F9001BD
:101DD0001124820F931F0A970CF475C010917C0296
:101DE00000910E0380911703CE0102960E94000716
:101DF000CE0109960E942A07CE0140966E2D0E94C0
:101E00004C07CE0148966F2D0E9470070E949507DF
:101E100030917C0280910E032CE33202D001112418
:101E2000992787FD9095A80FB91F812E99248CE3DF
:101E300090E0889EF001899EF00D989EF00D11248F
:101E4000E00FF11DE0907C02F0900E03AD014E1BFF
:101E50005F0B57FF18C0BD0160567A4F6E177F07A2
:101E600090F09A0120563A4F37FF03C030952195E4
:101E70003F4F88279927841B950B281739071CF497
:101E8000B8E1EB0E01C0BD01E617F707E0F400E092
:101E900010E0CE2CDD24C7FCD0940FC08B2D6F2D0D
:101EA00040E00E94810AFA9402C0BE2CB01AF7FEEC
:101EB000F5CF0F5F1F4F6BE3F62EC601801B910B12
:101EC0008815990594F780E8EEE7F2E0DF011D92AE
:101ED0008A95E9F71092670208C0C801BE016F5FDA
:101EE0007F4F41E050E00E947E166F960FB6F89447
:101EF000DEBF0FBECDBFCF91DF911F910F91FF903D
:101F0000EF90DF90CF90BF909F908F9008958AE0E0
:101F100090E00E948E168093000385B1866085B99B
:101F200082E38093800080910003882329F08091D0
:101F3000800080688093800088E1809381008AEF30
:101F400090E0909387008093860080918600909126
:101F5000870096958795909389008093880080915B
:101F600088009091890090938B0080938A00089557
:101F700084E090E00E948E1668E10E94ED15909337
:101F80007C0285E090E00E948E166CE30E94ED15C5
:101F900090930E0386E090E00E948E166CE30E9400
:101FA000ED159093170388E090E00E948E166CE385
:101FB0000E94ED159093FF0287E090E00E948E163C
:101FC00068E10E94ED159093100381E090E00E947B
:101FD0008E1664E60E94ED159093FE0282E090E07A
:101FE0000E948E166DE00E94ED159093150383E01C
:101FF00090E00E948E168F718093040391E090937D
:102000006602E6EBF0E080818062808385E0809369
:10201000B10090937000789408950F931F938AE015
:10202000809376028BE090E00E948E16809362028D
:1020300010E00AE001C010E080917302882321F4CF
:1020400080917402882319F00093760204C0809175
:1020500076028823C9F08091730280FD38C0809198
:10206000730281FF14C010927302112369F48091EE
:102070006202882319F487EB91E002C080EC91E0C2
:102080000E94360311E003C01092140320C0809117
:10209000730282FFD1CF10927302113061F690E08B
:1020A00080916202882309F491E09093620299235F
:1020B00019F487EB91E002C080EC91E00E943603B6
:1020C0008BE090E0609162020E949616B5CF1F915E
:1020D0000F910895EF92FF920F931F938AE08093E0
:1020E00076028AE090E00E948E16F82E00E0EAE088
:1020F000EE2E01C000E080917302882321F48091CC
:102100007402882319F0E092760204C0809176026E
:10211000882369F18091730280FD66C0809173020B
:1021200081FF28C010927302002309F5FF2051F0AF
:1021300089EC91E00E94360380910A0381608093CC
:102140000A0304C082ED91E00E94360380910B03E4
:10215000816080930B0380910C03816080930C035A
:1021600080910D03816080930D0301E003C0109204
:1021700014033AC08091730282FFBDCF10927302A4
:10218000013009F0B7CF10E0FF2009F411E0F12E83
:10219000112351F089EC91E00E94360380910A03EB
:1021A000816080930A0304C082ED91E00E943603AF
:1021B00080910B03816080930B0380910C038160FD
:1021C00080930C0380910D03816080930D038AE05E
:1021D00090E0612F0E9496160E94870F80EA9FE090
:1021E00061E00E945A0187CF1F910F91FF90EF90FD
:1021F00008953F924F925F926F927F928F929F923B
:10220000AF92BF92CF92DF92EF92FF920F931F9304
:102210008AE08093760289E090E00E948E16182F63
:1022200020E0AAE03A2E0EE1FAE55F2EE5E54E2E1B
:1022300070E5772E6BE4662E56E4852E41E4A42EDD
:102240003CE3932E97E3B92E82E3D82EBDE2CB2E4A
:10225000A8E2FA2EF3E2EF2E01C020E08091730293
:10226000882321F480917402882319F03092760239
:1022700004C080917602882349F18091730280FD29
:1022800089C08091730281FF29C0109273022223BA
:10229000E9F48BED91E00E943603812F6AE00E9401
:1022A000ED15E82FF0E0EC57FF4FE491E160E0938B
:1022B0000C03812F0E94ED15E92FF0E0EC57FF4F42
:1022C000E491E160E0930D0321E008C01092140353
:1022D00089E090E0612F0E9496165CC080917302A5
:1022E00082FD04C08091740282FFB8CF1092730205
:1022F000213009F0B2CF1B5F1C3508F01EE1812FA1
:102300006AE00E94ED15E82FF0E0EC57FF4FE491F2
:10231000E160E0930C03812F0E94ED15E92FF0E0BE
:10232000EC57FF4FE491E160E0930D031F3180F122
:10233000143210F4E7BC92CF193210F4F7BC8ECFF0
:102340001E3210F4C7BC8ACF133310F4D7BC86CF2B
:10235000183310F4B7BC82CF1D3310F497BC7ECF76
:10236000123410F4A7BC7ACF173410F487BC76CFA0
:102370001C3410F467BC72CF113510F477BC6ECFEB
:10238000163510F447BC6ACF1B3511F057BC66CF29
:1023900007BD64CF1F910F91FF90EF90DF90CF901A
:1023A000BF90AF909F908F907F906F905F904F9075
:1023B0003F900895809164028823D1F180E8809352
:1023C00061001092610080E391E061E00E94B0142E
:1023D0001092640280E49CE90197F1F700B605FCD5
:1023E00027C00E94060189E090E00E948E160E949C
:1023F000A10181E58CBD5B9843988AE090E00E9442
:102400008E16809300030E94870FA8950E94260BCA
:1024100080E793E061E00E945A0180EE96E061E07F
:102420000E945A0180EC9DE061E00E945A01A8954B
:102430000895EF92FF920F931F9310915F02009106
:1024400068028AE080937602FF248AE0E82E809179
:10245000730280FDA8C080917302882321F48091CB
:102460007402882319F0E092760204C0809176020B
:10247000882369F18091730281FF2CC0109273024E
:10248000FF2089F4812F602F0E94E50280910603CE
:102490008160809306038091070381608093070326
:1024A000FF24F39417C081E0F81689F4812F602F80
:1024B0000E94E50280910903816080930903809165
:1024C0000A03816080930A03B2E0FB2E03C01092DE
:1024D000140369C08091730282FD04C0809174026C
:1024E00082FFB5CF1092730281E0F81659F5812F63
:1024F000992787FD90950D9669E170E00E941A1664
:10250000182F1C50812F602F0E94E5028091060336
:1025100081608093060380910703816080930703A5
:1025200010935F028DE090E0612F0E94961682EE7C
:1025300091E00E94D114812F992787FD90950E94E8
:10254000241520C082E0F816E9F4802F90E001966F
:102550006CE370E00E941A16082F812F602F0E94F2
:10256000E5028091090381608093090380910A0349
:10257000816080930A03009368028EE090E0602FF0
:102580000E9496168091740282FF61CF7894109217
:1025900071021092700280917002909171028B34DE
:1025A0009105C8F354CF1F910F91FF90EF900895BC
:1025B000AF92BF92CF92DF92EF92FF920F931F9351
:1025C00015BC569A5E9884B714BE90E00E94071519
:1025D00088E10FB6F89480936000109260000FBEFF
:1025E0002FE088E190E00FB6F894A8958093600002
:1025F0000FBE20936000A89511E010936502109221
:10260000660284E390E00E948E148EE291E061E025
:102610000E94B0148BEF91E00E94D1148CE092E004
:102620000E94D11480E890E00E94241584EB91E090
:102630000E94D11488E480BF80ED97E00197F1F704
:1026400000B605FE0BC080B7806180BF83E291E0D9
:1026500061E00E94B0140E94B80F5AC00E940601A7
:102660005B9880E191E061E00E94B0148DEF90E012
:1026700061E00E94B014109369001DBB1092140316
:1026800084EF90E061E00E94B01481E58CBD89EE9A
:1026900090E061E00E94B01489E090E00E948E1604
:1026A0000E94A10178948DE090E00E948E168093A4
:1026B0005F02845F893110F010925F028EE090E03B
:1026C0000E948E16809368028D3310F0109268027B
:1026D0008BE090E00E948E16809362028CED90E079
:1026E00061E00E94B0140E94870F80EA9FE061E0E1
:1026F0000E945A0181ED90E061E00E94B0140E94B6
:10270000B80F86EC90E061E00E94B0140E94260BA6
:1027100081EC90E061E00E94B01413E66BE0A62E1D
:1027200058E0B52E47E0C42E36E0D32E25E0E22E49
:1027300093E0F92E04E0A89500B605FE03C00E94C0
:10274000DA00F9CF8091730280FF58C010927302B3
:1027500080911403853071F1863038F4833009F1AB
:102760008430A0F4882349F07AC08730F1F18730B3
:1027700098F18B3009F073C026C0009314038FE1E9
:1027800092E00E9436030E94BB096BC0F0921403D2
:1027900089E292E00E9436030E94C9081092650205
:1027A00060C0E092140382E392E00E9436030E942C
:1027B0007A0B57C0A09214038BE392E00E94360379
:1027C0000E9419124EC0D092140384E492E00E9439
:1027D00036030E94F91045C0C09214038DE492E0C4
:1027E0000E9436030E946A103CC0B092140386E532
:1027F00092E00E9436030E940D1033C08091730254
:1028000081FF15C0109273021093140381E00E949F
:102810005404A895789410927102109270028091DD
:102820007002909171028C5D9540C8F317C0809141
:10283000730282FF16C010927302109314030E9459
:102840005D03A895789410927102109270028091A5
:102850007002909171028C5D9540C8F3A89510921A
:1028600014038091C00087FF66CF0E94270E63CFBC
:102870001F920F920FB60F9211242F933F934F93F5
:102880005F936F937F938F939F93AF93BF93EF93D8
:10289000FF9389E60E949B1429B178947894109252
:1028A00071021092700280917002909171020A97E9
:1028B000D0F389B1247030E090E0847090702817D4
:1028C000390711F40E94260BFF91EF91BF91AF9150
:1028D0009F918F917F916F915F914F913F912F9138
:1028E0000F900FBE0F901F90189506C090E000004B
:1028F0009F5F9E31E1F781508823C1F7089548EC2E
:1029000050E009C020E137E2FA013197F1F7215098
:102910003040D1F781508823A9F708959093C500DE
:102920008093C40088E18093C1008EE08093C20050
:10293000519A50980895982F8091C00085FFFCCF40
:102940009093C60080E090E008958091C00087FFDA
:10295000FCCF8091C60008958091C00080780895D2
:10296000AC0120E007C08091C00085FFFCCF309310
:10297000C6002F5FFA01E20FF11D3491332399F75E
:10298000662371F08091C00085FFFCCF8AE08093C0
:10299000C6008091C00085FFFCCF8DE08093C6000B
:1029A0000895FC0107C08091C00085FFFCCF3196DF
:1029B0009093C60090819923B1F70895282F982FFE
:1029C00092959F709A3030F48091C00085FFFCCFC3
:1029D000905D05C08091C00085FFFCCF995A90930F
:1029E000C600822F90E08F7090700A973CF480911F
:1029F000C00085FFFCCF2F70205D06C08091C00015
:102A000085FFFCCF2F70295A2093C60008951F938D
:102A1000182F892F0E94DE14812F0E94DE141F912F
:102A20000895EF92FF920F931F937B018C01C801D1
:102A3000AA27BB270E940715C7010E9407151F91EF
:102A40000F91FF90EF9008950F931F93CF93DF9313
:102A50008C01E0E1F7E240E0C0E0D0E0C801BF0156
:102A60000E940616262F662329F4442319F4E13028
:102A7000F10549F48091C00085FFFCCF205D2093D3
:102A8000C600205341E0CF016AE070E00E940616C4
:102A90002196C530D10571F0822F90E09C012E9FC8
:102AA000C0012F9F900D3E9F900D1124081B190B04
:102AB000FB01D4CFDF91CF911F910F9108954F92D9
:102AC0005F926F927F928F929F92AF92BF92CF92BE
:102AD000DF92EF92FF920F931F93CF93DF934B01FF
:102AE0005C01E12C9AECF92E9AE9092F9BE3192F4E
:102AF0004424C0E0D0E0C501B401A80197010E94C0
:102B00002D16D22E222341F4442031F481E0E81620
:102B1000F1040105110561F48091C00085FFFCCF2F
:102B200080E3D80ED092C60080EDD80E44244394A2
:102B3000C801B7012AE030E040E050E00E942D16C5
:102B4000C22E732E642E552E2196CA30D105A9F0BF
:102B50006D2D70E080E090E0A80197010E94CE15F5
:102B6000861A970AA80AB90A2C2D372D462D552DFD
:102B7000C901DA017C018D01BECFDF91CF911F9198
:102B80000F91FF90EF90DF90CF90BF90AF909F900C
:102B90008F907F906F905F904F900895629FD001CB
:102BA000739FF001829FE00DF11D649FE00DF11D08
:102BB000929FF00D839FF00D749FF00D659FF00DB7
:102BC0009927729FB00DE11DF91F639FB00DE11DA4
:102BD000F91FBD01CF0111240895991B79E004C0AC
:102BE000991F961708F0961B881F7A95C9F780954C
:102BF000089587FB082E062687FD819567FD619560
:102C0000ECDF0EF4919507FC81950895AA1BBB1B80
:102C100051E107C0AA1FBB1FA617B70710F0A61BDC
:102C2000B70B881F991F5A95A9F780959095BC01FD
:102C3000CD01089597FB092E07260AD077FD04D011
:102C4000E5DF06D000201AF4709561957F4F089556
:102C5000F6F7909581959F4F0895A1E21A2EAA1B31
:102C6000BB1BFD010DC0AA1FBB1FEE1FFF1FA2173C
:102C7000B307E407F50720F0A21BB30BE40BF50B39
:102C8000661F771F881F991F1A9469F760957095C2
:102C9000809590959B01AC01BD01CF01089597FBF4
:102CA000092E05260ED057FD04D0D7DF0AD0001C10
:102CB00038F450954095309521953F4F4F4F5F4FD9
:102CC0000895F6F790958095709561957F4F8F4F99
:102CD0009F4F0895FC018191861721F08823D9F731
:102CE000992708953197CF010895FB01DC018D915B
:102CF000019080190110D9F3990B0895FB01DC01B3
:102D00000D900020E9F711974150504028F00190B4
:102D100000200D92C9F708951C920895F999FECFED
:102D200092BD81BDF89A992780B50895262FF9990B
:102D3000FECF1FBA92BD81BD20BD0FB6F894FA9A9E
:0C2D4000F99A0FBE01960895F894FFCF99
:102D4C00626164206C61742000626164206C6F6E3F
:102D5C006700206E6F20677073200073756E64615E
:102D6C0079006D6F6E646179007475657364617957
:102D7C00007765646E73646179007468757273644E
:102D8C00617900667269646179007361747572644B
:102D9C006179006A616E00666562006D61726368DC
:102DAC0000617072696C006D6179006A756E650006
:102DBC006A756C7900617567737400736570740063
:102DCC006F63746F62006E6F76656D00646563652A
:102DDC006D00202020202020202000616C61726D6D
:102DEC00206F6E00736E6F6F7A696E6700244750A8
:102DFC00524D43000A0D007573612D31326872001B
:102E0C006575722D3234687200766F6C2068696754
:102E1C006800766F6C20206C6F7700627269746545
:102E2C0020000A0D54696D657A6F6E65206F6666B9
:102E3C0073657420686F75723A09000A0D48656CE9
:102E4C006C6F20576F726C64210A0D000A0D42756D
:102E5C00666665722073697A652069733A09007336
:102E6C00657420616C61726D007365742074696D9A
:102E7C006500736574206461746500736574207AF1
:102E8C006F6E65007365742062726974007365748B
:102E9C0020766F6C2000736574207265676E00FA83
:00000001FF
